{
  "address": "0x00cf6c168E79Cd7a6bf139E90B1Ea22b4Ef3fe18",
  "abi": [
    {
      "inputs": [
        {
          "internalType": "address",
          "name": "_owner",
          "type": "address"
        },
        {
          "internalType": "string",
          "name": "_name",
          "type": "string"
        },
        {
          "internalType": "string",
          "name": "_symbol",
          "type": "string"
        },
        {
          "internalType": "uint8",
          "name": "_decimals",
          "type": "uint8"
        }
      ],
      "stateMutability": "nonpayable",
      "type": "constructor"
    },
    {
      "anonymous": false,
      "inputs": [
        {
          "indexed": true,
          "internalType": "address",
          "name": "owner",
          "type": "address"
        },
        {
          "indexed": true,
          "internalType": "address",
          "name": "spender",
          "type": "address"
        },
        {
          "indexed": false,
          "internalType": "uint256",
          "name": "value",
          "type": "uint256"
        }
      ],
      "name": "Approval",
      "type": "event"
    },
    {
      "anonymous": false,
      "inputs": [
        {
          "indexed": true,
          "internalType": "address",
          "name": "from",
          "type": "address"
        },
        {
          "indexed": true,
          "internalType": "address",
          "name": "to",
          "type": "address"
        },
        {
          "indexed": false,
          "internalType": "uint256",
          "name": "value",
          "type": "uint256"
        }
      ],
      "name": "Transfer",
      "type": "event"
    },
    {
      "inputs": [
        {
          "internalType": "address",
          "name": "owner",
          "type": "address"
        },
        {
          "internalType": "address",
          "name": "spender",
          "type": "address"
        }
      ],
      "name": "allowance",
      "outputs": [
        {
          "internalType": "uint256",
          "name": "amount",
          "type": "uint256"
        }
      ],
      "stateMutability": "view",
      "type": "function"
    },
    {
      "inputs": [
        {
          "internalType": "address",
          "name": "spender",
          "type": "address"
        },
        {
          "internalType": "uint256",
          "name": "amount",
          "type": "uint256"
        }
      ],
      "name": "approve",
      "outputs": [
        {
          "internalType": "bool",
          "name": "",
          "type": "bool"
        }
      ],
      "stateMutability": "nonpayable",
      "type": "function"
    },
    {
      "inputs": [
        {
          "internalType": "address",
          "name": "owner",
          "type": "address"
        }
      ],
      "name": "balanceOf",
      "outputs": [
        {
          "internalType": "uint256",
          "name": "amount",
          "type": "uint256"
        }
      ],
      "stateMutability": "view",
      "type": "function"
    },
    {
      "inputs": [],
      "name": "decimals",
      "outputs": [
        {
          "internalType": "uint8",
          "name": "",
          "type": "uint8"
        }
      ],
      "stateMutability": "view",
      "type": "function"
    },
    {
      "inputs": [],
      "name": "faucetLimit",
      "outputs": [
        {
          "internalType": "uint256",
          "name": "",
          "type": "uint256"
        }
      ],
      "stateMutability": "view",
      "type": "function"
    },
    {
      "inputs": [
        {
          "internalType": "uint256",
          "name": "_amount",
          "type": "uint256"
        }
      ],
      "name": "faucetTokens",
      "outputs": [],
      "stateMutability": "nonpayable",
      "type": "function"
    },
    {
      "inputs": [
        {
          "internalType": "address",
          "name": "_to",
          "type": "address"
        },
        {
          "internalType": "uint256",
          "name": "_amount",
          "type": "uint256"
        }
      ],
      "name": "mintToken",
      "outputs": [],
      "stateMutability": "nonpayable",
      "type": "function"
    },
    {
      "inputs": [],
      "name": "name",
      "outputs": [
        {
          "internalType": "string",
          "name": "",
          "type": "string"
        }
      ],
      "stateMutability": "view",
      "type": "function"
    },
    {
      "inputs": [],
      "name": "owner",
      "outputs": [
        {
          "internalType": "address",
          "name": "",
          "type": "address"
        }
      ],
      "stateMutability": "view",
      "type": "function"
    },
    {
      "inputs": [],
      "name": "symbol",
      "outputs": [
        {
          "internalType": "string",
          "name": "",
          "type": "string"
        }
      ],
      "stateMutability": "view",
      "type": "function"
    },
    {
      "inputs": [],
      "name": "totalSupply",
      "outputs": [
        {
          "internalType": "uint256",
          "name": "",
          "type": "uint256"
        }
      ],
      "stateMutability": "view",
      "type": "function"
    },
    {
      "inputs": [
        {
          "internalType": "address",
          "name": "recipient",
          "type": "address"
        },
        {
          "internalType": "uint256",
          "name": "amount",
          "type": "uint256"
        }
      ],
      "name": "transfer",
      "outputs": [
        {
          "internalType": "bool",
          "name": "",
          "type": "bool"
        }
      ],
      "stateMutability": "nonpayable",
      "type": "function"
    },
    {
      "inputs": [
        {
          "internalType": "address",
          "name": "sender",
          "type": "address"
        },
        {
          "internalType": "address",
          "name": "recipient",
          "type": "address"
        },
        {
          "internalType": "uint256",
          "name": "amount",
          "type": "uint256"
        }
      ],
      "name": "transferFrom",
      "outputs": [
        {
          "internalType": "bool",
          "name": "",
          "type": "bool"
        }
      ],
      "stateMutability": "nonpayable",
      "type": "function"
    }
  ],
  "transactionHash": "0x12c84e157d38d5a1f2f8cb4a8abb60c6a6d43a4dea022fd6cf266fe40af1a754",
  "args": [
    "0x14E9511285a10950f3c968Fa371F3b87182C9ef5",
    "KoinBXToken",
    "kBXT",
    "18"
  ],
  "numDeployments": 2,
  "solcInputHash": "07c68446ea26555a46c0d708486a25e3",
  "bytecode": "0x6080604052678ac7230489e8000a6006553480156200001d57600080fd5b5060405162000c8238038062000c82833981016040819052620000409162000202565b828282600362000051848262000337565b50600462000060838262000337565b506005805460ff191660ff929092169190911790555050600780546001600160a01b0319166001600160a01b038616179055600654620000a2908590620000ac565b505050506200042b565b6001600160a01b03821660009081526001602052604081208054839290620000d690849062000403565b9250508190555080600080828254620000f0919062000403565b90915550506040518181526001600160a01b038316906000907fddf252ad1be2c89b69c2b068fc378daa952ba7f163c4a11628f55a4df523b3ef9060200160405180910390a35050565b634e487b7160e01b600052604160045260246000fd5b600082601f8301126200016257600080fd5b81516001600160401b03808211156200017f576200017f6200013a565b604051601f8301601f19908116603f01168101908282118183101715620001aa57620001aa6200013a565b8160405283815260209250866020858801011115620001c857600080fd5b600091505b83821015620001ec5785820183015181830184015290820190620001cd565b6000602085830101528094505050505092915050565b600080600080608085870312156200021957600080fd5b84516001600160a01b03811681146200023157600080fd5b60208601519094506001600160401b03808211156200024f57600080fd5b6200025d8883890162000150565b945060408701519150808211156200027457600080fd5b50620002838782880162000150565b925050606085015160ff811681146200029b57600080fd5b939692955090935050565b600181811c90821680620002bb57607f821691505b602082108103620002dc57634e487b7160e01b600052602260045260246000fd5b50919050565b601f82111562000332576000816000526020600020601f850160051c810160208610156200030d5750805b601f850160051c820191505b818110156200032e5782815560010162000319565b5050505b505050565b81516001600160401b038111156200035357620003536200013a565b6200036b81620003648454620002a6565b84620002e2565b602080601f831160018114620003a357600084156200038a5750858301515b600019600386901b1c1916600185901b1785556200032e565b600085815260208120601f198616915b82811015620003d457888601518255948401946001909101908401620003b3565b5085821015620003f35787850151600019600388901b60f8161c191681555b5050505050600190811b01905550565b808201808211156200042557634e487b7160e01b600052601160045260246000fd5b92915050565b610847806200043b6000396000f3fe608060405234801561001057600080fd5b50600436106100df5760003560e01c806370a082311161008c57806395d89b411161006657806395d89b41146101df578063a9059cbb146101e7578063dd62ed3e146101fa578063fbedbe621461022557600080fd5b806370a082311461017f57806379c650681461019f5780638da5cb5b146101b457600080fd5b806323b872dd116100bd57806323b872dd1461013c578063313ce5671461014f5780636544e4391461016e57600080fd5b806306fdde03146100e4578063095ea7b31461010257806318160ddd14610125575b600080fd5b6100ec610238565b6040516100f9919061065c565b60405180910390f35b6101156101103660046106c7565b6102c6565b60405190151581526020016100f9565b61012e60005481565b6040519081526020016100f9565b61011561014a3660046106f1565b610333565b60055461015c9060ff1681565b60405160ff90911681526020016100f9565b61012e6969e10de76676d080000081565b61012e61018d36600461072d565b60016020526000908152604090205481565b6101b26101ad3660046106c7565b610420565b005b6007546101c7906001600160a01b031681565b6040516001600160a01b0390911681526020016100f9565b6100ec6104b3565b6101156101f53660046106c7565b6104c0565b61012e61020836600461074f565b600260209081526000928352604080842090915290825290205481565b6101b2610233366004610782565b610550565b600380546102459061079b565b80601f01602080910402602001604051908101604052809291908181526020018280546102719061079b565b80156102be5780601f10610293576101008083540402835291602001916102be565b820191906000526020600020905b8154815290600101906020018083116102a157829003601f168201915b505050505081565b3360008181526002602090815260408083206001600160a01b038716808552925280832085905551919290917f8c5be1e5ebec7d5bd14f71427d1e84f3dd0314c0f7b2291e5b200ac8c7c3b925906103219086815260200190565b60405180910390a35060015b92915050565b6001600160a01b03831660009081526002602090815260408083203384529091528120805483919083906103689084906107eb565b90915550506001600160a01b038416600090815260016020526040812080548492906103959084906107eb565b90915550506001600160a01b038316600090815260016020526040812080548492906103c29084906107fe565b92505081905550826001600160a01b0316846001600160a01b03167fddf252ad1be2c89b69c2b068fc378daa952ba7f163c4a11628f55a4df523b3ef8460405161040e91815260200190565b60405180910390a35060019392505050565b6007546001600160a01b031633146104a55760405162461bcd60e51b815260206004820152602560248201527f4b6f696e42583a2043616c6c6572206d757374206265206f776e6572206f662060448201527f746f6b656e00000000000000000000000000000000000000000000000000000060648201526084015b60405180910390fd5b6104af82826105d2565b5050565b600480546102459061079b565b336000908152600160205260408120805483919083906104e19084906107eb565b90915550506001600160a01b0383166000908152600160205260408120805484929061050e9084906107fe565b90915550506040518281526001600160a01b0384169033907fddf252ad1be2c89b69c2b068fc378daa952ba7f163c4a11628f55a4df523b3ef90602001610321565b336000908152600860205260409020546969e10de76676d0800000906105779083906107fe565b11156105c55760405162461bcd60e51b815260206004820181905260248201527f4b6f696e42583a2046617563657420616d6f756e74206c696d69746174696f6e604482015260640161049c565b6105cf33826105d2565b50565b6001600160a01b038216600090815260016020526040812080548392906105fa9084906107fe565b925050819055508060008082825461061291906107fe565b90915550506040518181526001600160a01b038316906000907fddf252ad1be2c89b69c2b068fc378daa952ba7f163c4a11628f55a4df523b3ef9060200160405180910390a35050565b60006020808352835180602085015260005b8181101561068a5785810183015185820160400152820161066e565b506000604082860101526040601f19601f8301168501019250505092915050565b80356001600160a01b03811681146106c257600080fd5b919050565b600080604083850312156106da57600080fd5b6106e3836106ab565b946020939093013593505050565b60008060006060848603121561070657600080fd5b61070f846106ab565b925061071d602085016106ab565b9150604084013590509250925092565b60006020828403121561073f57600080fd5b610748826106ab565b9392505050565b6000806040838503121561076257600080fd5b61076b836106ab565b9150610779602084016106ab565b90509250929050565b60006020828403121561079457600080fd5b5035919050565b600181811c908216806107af57607f821691505b6020821081036107cf57634e487b7160e01b600052602260045260246000fd5b50919050565b634e487b7160e01b600052601160045260246000fd5b8181038181111561032d5761032d6107d5565b8082018082111561032d5761032d6107d556fea2646970667358221220997dec00c616e008699bf072b70676375fcfbfc27a3aee2e06937512ff6c4dc264736f6c63430008180033",
  "devdoc": {
    "kind": "dev",
    "methods": {},
    "version": 1
  },
  "userdoc": {
    "kind": "user",
    "methods": {},
    "version": 1
  },
  "storageLayout": {
    "storage": [
      {
        "astId": 23,
        "contract": "contracts/kBXToken.sol:KoinBX",
        "label": "totalSupply",
        "offset": 0,
        "slot": "0",
        "type": "t_uint256"
      },
      {
        "astId": 27,
        "contract": "contracts/kBXToken.sol:KoinBX",
        "label": "balanceOf",
        "offset": 0,
        "slot": "1",
        "type": "t_mapping(t_address,t_uint256)"
      },
      {
        "astId": 33,
        "contract": "contracts/kBXToken.sol:KoinBX",
        "label": "allowance",
        "offset": 0,
        "slot": "2",
        "type": "t_mapping(t_address,t_mapping(t_address,t_uint256))"
      },
      {
        "astId": 35,
        "contract": "contracts/kBXToken.sol:KoinBX",
        "label": "name",
        "offset": 0,
        "slot": "3",
        "type": "t_string_storage"
      },
      {
        "astId": 37,
        "contract": "contracts/kBXToken.sol:KoinBX",
        "label": "symbol",
        "offset": 0,
        "slot": "4",
        "type": "t_string_storage"
      },
      {
        "astId": 39,
        "contract": "contracts/kBXToken.sol:KoinBX",
        "label": "decimals",
        "offset": 0,
        "slot": "5",
        "type": "t_uint8"
      },
      {
        "astId": 283,
        "contract": "contracts/kBXToken.sol:KoinBX",
        "label": "INITIAL_SUPPLY",
        "offset": 0,
        "slot": "6",
        "type": "t_uint256"
      },
      {
        "astId": 290,
        "contract": "contracts/kBXToken.sol:KoinBX",
        "label": "owner",
        "offset": 0,
        "slot": "7",
        "type": "t_address"
      },
      {
        "astId": 294,
        "contract": "contracts/kBXToken.sol:KoinBX",
        "label": "_faucets",
        "offset": 0,
        "slot": "8",
        "type": "t_mapping(t_address,t_uint256)"
      }
    ],
    "types": {
      "t_address": {
        "encoding": "inplace",
        "label": "address",
        "numberOfBytes": "20"
      },
      "t_mapping(t_address,t_mapping(t_address,t_uint256))": {
        "encoding": "mapping",
        "key": "t_address",
        "label": "mapping(address => mapping(address => uint256))",
        "numberOfBytes": "32",
        "value": "t_mapping(t_address,t_uint256)"
      },
      "t_mapping(t_address,t_uint256)": {
        "encoding": "mapping",
        "key": "t_address",
        "label": "mapping(address => uint256)",
        "numberOfBytes": "32",
        "value": "t_uint256"
      },
      "t_string_storage": {
        "encoding": "bytes",
        "label": "string",
        "numberOfBytes": "32"
      },
      "t_uint256": {
        "encoding": "inplace",
        "label": "uint256",
        "numberOfBytes": "32"
      },
      "t_uint8": {
        "encoding": "inplace",
        "label": "uint8",
        "numberOfBytes": "1"
      }
    }
  }
}